S00E00005332425F46572E7372656353
S11300000C94EA060C9407070C9407070C94070752
S11300100C9407070C9407070C9407070C94070724
S11300200C9407070C9407070C9407070C94070714
S11300300C9407070C9407070C9407070C94070704
S11300400C9407070C9407070C9407070C940707F4
S11300500C9407070C9407070C9407070C940707E4
S11300600C9407070C9472120C9407070C9407075E
S11300700C9407070C9407070C9407070C940707C4
S11300800C9407070C9407070C9407070C940707B4
S11300900C9407070C9407070C9407070C940707A4
S11300A00C9407070C9407070C9407070C94070794
S11300B00C9407070C9407070C9407070C94070784
S11300C00C9407070C9407070C9407070C94070774
S11300D00C9407070C9407070C9407070C94070764
S11300E00C9407070C9407070C9407070C94070754
S11300F00C9407070C9407070C9407070C94070744
S11301000C9407070C9407070C9407070C94070733
S11301100C9407070C9407070C9407070C94070723
S11301200C9407070C9407070C9407070C94070713
S11301300C9407070C9407070C9407070C94070703
S11301400C9407070C9407070C9407070C940707F3
S11301500C9407070C9407070C9407070C940707E3
S11301600C94AC120C9407070C9407077417CD1762
S1130170CD17CD17CD17CD17CD17CD17CD17CD175B
S1130180CD17CD17CD17CD17CD17CD17CD17CD174B
S1130190CD17EE16CD17CD17CD17CD17CD17CD171B
S11301A0CD17CD17CD17D417F316E8167417741797
S11301B0CD17CD17CD17CD17CD17CD17CD17CD171B
S11301C0D917CD17CD17CD170317CD17E816CD17AF
S11301D0CD17EE161C011B011B011B011B011A018B
S11301E01A011A011A011901190119011901180139
S11301F01801180118011701170117011701160139
S11302001601160116011501150115011501140138
S11302101401140114011301130113011301120138
S11302201201120112011101110111011101100138
S11302301001100110010F010F010F010F010E0138
S11302400E010E010E010D010D010D010D010C0138
S11302500C010C010C010B010B010B010B010A0138
S11302600A010A010A010901090109010901090137
S11302700801080108010801070107010701070136
S11302800601060106010601050105010501050136
S11302900401040104010401040103010301030135
S11302A00301020102010201020101010101010134
S11302B0010101010001000100010001FF00FF0034
S11302C0FF00FF00FE00FE00FE00FE00FE00FD0039
S11302D0FD00FD00FD00FC00FC00FC00FC00FB0038
S11302E0FB00FB00FB00FB00FA00FA00FA00FA0036
S11302F0F900F900F900F900F900F800F800F80035
S1130300F800F700F700F700F700F700F600F60032
S1130310F600F600F500F500F500F500F500F40030
S1130320F400F400F400F300F300F300F300F3002E
S1130330F200F200F200F200F100F100F100F1002D
S1130340F100F000F000F000F000EF00EF00EF002B
S1130350EF00EF00EE00EE00EE00EE00EE00ED0028
S1130360ED00ED00ED00EC00EC00EC00EC00EC0026
S1130370EB00EB00EB00EB00EB00EA00EA00EA0024
S1130380EA00E900E900E900E900E900E800E80022
S1130390E800E800E800E700E700E700E700E7001E
S11303A0E600E600E600E600E600E500E500E5001C
S11303B0E500E400E400E400E400E400E300E3001A
S11303C0E300E300E300E200E200E200E200E20016
S11303D0E100E100E100E100E100E000E000E00014
S11303E0E000E000DF00DF00DF00DF00DF00DE0010
S11303F0DE00DE00DE00DE00DD00DD00DD00DD000D
S1130400DD00DC00DC00DC00DC00DC00DB00DB0009
S1130410DB00DB00DB00DA00DA00DA00DA00DA0005
S1130420D900D900D900D900D900D800D800D80003
S1130430D800D800D700D700D700D700D700D600FF
S1130440D600D600D600D600D500D500D500D500FC
S1130450D500D500D400D400D400D400D400D300F7
S1130460D300D300D300D300D200D200D200D200F4
S1130470D200D100D100D100D100D100D100D000F0
S1130480D000D000D000D000CF00CF00CF00CF00EC
S1130490CF00CE00CE00CE00CE00CE00CE00CD00E8
S11304A0CD00CD00CD00CD00CC00CC00CC00CC00E4
S11304B0CC00CB00CB00CB00CB00CB00CB00CA00E0
S11304C0CA00CA00CA00CA00C900C900C900C900DC
S11304D0C900C900C800C800C800C800C800C700D7
S11304E0C700C700C700C700C700C600C600C600D3
S11304F0C600C600C600C500C500C500C500C500CD
S1130500C400C400C400C400C400C400C300C300C9
S1130510C300C300C300C200C200C200C200C200C4
S1130520C200C100C100C100C100C100C100C000BF
S1130530C000C000C000C000C000BF00BF00BF00BA
S1130540BF00BF00BE00BE00BE00BE00BE00BE00B5
S1130550BD00BD00BD00BD00BD00BD00BC00BC00B1
S1130560BC00BC00BC00BC00BB00BB00BB00BB00AB
S1130570BB00BB00BA00BA00BA00BA00BA00BA00A5
S1130580B900B900B900B900B900B900B800B800A1
S1130590B800B800B800B800B700B700B700B7009B
S11305A0B700B700B600B600B600B600B600B60095
S11305B0B500B500B500B500B500B500B400B40091
S11305C0B400B400B400B400B300B300B300B3008B
S11305D0B300B300B200B200B200B200B200B20085
S11305E0B100B100B100B100B100B100B100B00080
S11305F0B000B000B000B000B000AF00AF00AF007A
S1130600AF00AF00AF00AE00AE00AE00AE00AE0073
S1130610AE00AE00AD00AD00AD00AD00AD00AD006C
S1130620AC00AC00AC00AC00AC00AC00AB00AB0068
S1130630AB00AB00AB00AB00AB00AA00AA00AA0061
S1130640AA00AA00AA00A900A900A900A900A9005B
S1130650A900A900A800A800A800A800A800A80054
S1130660A800A700A700A700A700A700A700A6004E
S1130670A600A600A600A600A600A600A500A50048
S1130680A500A500A500A500A500A400A400A40041
S1130690A400A400A400A300A300A300A300A3003B
S11306A0A300A300A200A200A200A200A200A20034
S11306B0A200A100A100A100A100A100A100A1002D
S11306C0A000A000A000A000A000A000A0009F0027
S11306D09F009F009F009F009F009F009E009E0020
S11306E09E009E009E009E009E009D009D009D0019
S11306F09D009D009D009D009C009C009C009C0012
S11307009C009C009C009B009B009B009B009B000A
S11307109B009B009A009A009A009A009A009A0003
S11307209A009900990099009900990099009900FC
S113073098009800980098009800980098009700F6
S113074097009700970097009700970097009600EE
S113075096009600960096009600960095009500E7
S113076095009500950095009500950094009400DF
S113077094009400940094009400930093009300D8
S113078093009300930093009300920092009200D0
S113079092009200920092009100910091009100C9
S11307A091009100910091009000900090009000C1
S11307B09000900090008F008F008F008F008F00BA
S11307C08F008F008F008E008E008E008E008E00B2
S11307D08E008E000E040F0410041104120413047E
S11307E014041504160417041804180419041A042C
S11307F01B041C041D041E041F04200421042204E1
S113080023042404250426042704280429042A0490
S11308102B042C042D042D042E042F043004310445
S113082032043304340435043604370438043904F8
S11308303A043B043C043D043E043F0440044104A8
S11308404204430444044504460447044804490458
S11308504A044B044C044D044E044F045004510408
S113086052045304540455045604570458045904B8
S11308705A045B045C045D045E045F046004610468
S11308806204630464046504660467046804690418
S11308906A046B046C046D046E046F0470047104C8
S11308A07204730474047504760477047804790478
S11308B07A047B047D047E047F0480048104820422
S11308C083048404850486048704880489048A04D0
S11308D08B048C048D048E048F0490049104920480
S11308E09404950496049704980499049A049B0428
S11308F09C049D049E049F04A004A104A204A404D7
S1130900A504A604A704A804A904AA04AB04AC047F
S1130910AD04AE04AF04B004B204B304B404B5042B
S1130920B604B704B804B904BA04BB04BC04BE04D6
S1130930BF04C004C104C204C304C404C504C6047F
S1130940C704C904CA04CB04CC04CD04CE04CF0428
S1130950D004D104D304D404D504D604D704D804D1
S1130960D904DA04DB04DD04DE04DF04E004E1047A
S1130970E204E304E404E604E704E804E904EA0422
S1130980EB04EC04EE04EF04F004F104F204F304C9
S1130990F404F604F704F804F904FA04FB04FC0470
S11309A0FE04FF040005010502050305050506050F
S11309B00705080509050A050B050D050E050F05B4
S11309C01005110513051405150516051705180559
S11309D01A051B051C051D051E051F0521052205FD
S11309E02305240525052705280529052A052B05A2
S11309F02D052E052F053005310533053405350544
S1130A003605370539053A053B053C053D053F05E7
S1130A10400541054205430545054605470548058A
S1130A204A054B054C054D054E055005510552052B
S1130A30530555055605570558055A055B055C05CC
S1130A405D055E056005610562056305650566056E
S1130A50670568056A056B056C056D056F0570050E
S1130A6071057205740575057605780579057A05AD
S1130A707B057D057E057F0580058205830584054C
S1130A8085058705880589058B058C058D058E05EB
S1130A909005910592059405950596059705990588
S1130AA09A059B059D059E059F05A105A205A30525
S1130AB0A405A605A705A805AA05AB05AC05AE05C2
S1130AC0AF05B005B205B305B405B505B705B8055E
S1130AD0B905BB05BC05BD05BF05C005C105C305FA
S1130AE0C405C505C705C805C905CB05CC05CD0595
S1130AF0CF05D005D105D305D405D505D705D8052F
S1130B00DA05DB05DC05DE05DF05E005E205E305C6
S1130B10E405E605E705E805EA05EB05ED05EE0560
S1130B20EF05F105F205F305F505F605F805F905F8
S1130B30FA05FC05FD05FE0500060106030604068C
S1130B400506070608060A060B060C060E060F061F
S1130B5011061206130615061606180619061A06B5
S1130B601C061D061F06200621062306240626064B
S1130B70270629062A062B062D062E0630063106E0
S1130B80330634063506370638063A063B063D0674
S1130B903E06400641064206440645064706480608
S1130BA04A064B064D064E064F065106520654069B
S1130BB05506570658065A065B065D065E0660062D
S1130BC06106630664066506670668066A066B06C0
S1130BD06D066E0670067106730674067606770651
S1130BE079067A067C067D067F06800682068306E1
S1130BF085068606880689068B068C068E068F0671
S1130C009106920694069506970699069A069C06FE
S1130C109D069F06A006A206A306A506A606A8068C
S1130C20A906AB06AC06AE06B006B106B306B4061A
S1130C30B606B706B906BA06BC06BD06BF06C106A7
S1130C40C206C406C506C706C806CA06CC06CD0633
S1130C50CF06D006D206D306D506D706D806DA06BE
S1130C60DB06DD06DF06E006E206E306E506E60649
S1130C70E806EA06EB06ED06EE06F006F206F306D3
S1130C80F506F606F806FA06FB06FD06FF0600075B
S1130C90020703070507070708070A070C070D07DC
S1130CA00F071007120714071507170719071A0764
S1130CB01C071E071F0721072207240726072707EB
S1130CC029072B072C072E07300731073307350771
S1130CD0360738073A073B073D073F0740074207F7
S1130CE044074507470749074A074C074E074F077C
S1130CF0510753075507560758075A075B075D07FF
S1130D005F076007620764076607670769076B0781
S1130D106C076E0770077207730775077707780704
S1130D207A077C077E077F07810783078507860785
S1130D3088078A078C078D078F0791079307940705
S1130D40960798079A079B079D079F07A107A20785
S1130D50A407A607A807A907AB07AD07AF07B10704
S1130D60B207B407B607B807B907BB07BD07BF0783
S1130D70C107C207C407C607C807CA07CB07CD0700
S1130D80CF07D107D307D407D607D807DA07DC077C
S1130D90DD07DF07E107E307E507E707E807EA07F9
S1130DA0EC07EE07F007F207F307F507F707F90773
S1130DB0FB07FD07FE0700080208040806080808E8
S1130DC00A080B080D080F0811081308150817085E
S1130DD018081A0811241FBECFEFCDBFDFE2DEBF13
S1130DE011E2A0E0B0E2E8E8F1E402C005900D925F
S1130DF0A033B107D9F72AE2A0E3B1E201C01D9202
S1130E00A137B207E1F70E947C070C94C2200C942E
S1130E100000962F672FE0E6F6E020EF268340E1FE
S1130E20749F900111242583482F892F0E94FC0B65
S1130E300895862F672F0E94EA080895962F672F3A
S1130E40482F892F0E94FC080895962F672F782F2A
S1130E50892F0E94160B0895692F0E94400A089555
S1130E60CF93DF93CDB7DEB76D81CE0106960E9496
S1130E70670DDF91CF91089568E381E00E94B31C70
S1130E8068E382E00E94B31C40E05EE360E080E03F
S1130E900E94781C4FE060E080E00E94B91C2FEFB4
S1130EA083EC99E0215080409040E1F700C00000BD
S1130EB040E05DE760E080E00E94781C2FEF83EC67
S1130EC099E0215080409040E1F700C0000040E0EC
S1130ED060E080E00E94B91C089588ED84BF82E040
S1130EE0809350008091510081FFFCCF88ED84BF36
S1130EF081E080934000089580EF809361060E9412
S1130F006D070E9463190E94E6120E941A130E9440
S1130F10A6190E94EF0D0E94C60789E097E080930E
S1130F203E2190933F2189E197E080933C21909367
S1130F303D218EE197E080933A2190933B2185E215
S1130F4097E080933621909337218CE297E0809349
S1130F5038219093392180E397E080933421909352
S1130F60352140E069E170E281E00E94EF1C789451
S1130F7087E08093A2000E943C070E9442138F3FA7
S1130F802FEF9207D1F30E942112F7CF80E009C01E
S1130F9097E2899FF0011124E650FE4D90EC908376
S1130FA08F5F8C30A8F380E00AC0E82FF0E0EE0FEA
S1130FB0FF1FEE0FFF1FEE5BFE4D10828F5F86302A
S1130FC0A0F320E023C0822F90E0FC01EE0FFF1F6E
S1130FD0EE0FFF1FEE0FFF1FE81BF90BE657FE4D48
S1130FE03FE7318334E6308330EC338332E03483BB
S1130FF040E050E245835683880F991FFC01E25379
S1131000FC4D8FE79FE7808391832F5F2031D8F2D7
S1131010EEEEF3E280EC8083818382838383848396
S113102085838FE30E94BF1B4FE160EC81E00E9447
S1131030C71B4FE160EC82E00E94C71B4FE160ECEC
S113104084E00E94C71B4FE160EC88E00E94C71B4C
S11310504FE160EC80E10E94C71B4FE160EC80E24D
S11310600E94C71B08950F931F93CF93DF93CDB7AF
S1131070DEB7CA54D109CDBFDEBF182F90E0FC0102
S1131080EE0FFF1FEE0FFF1FEE0FFF1FE81BF90B04
S1131090E657FE4D81816081869FB0011124072EA1
S11310A0000C880B990B0E94441E20E030E04EEFA8
S11310B052E40E949A1D0E94131E062F06951F9249
S11310C00F9383E490E29F938F930E944F190F90A4
S11310D00F900F900F90193021F4802F0E94BF1BA6
S11310E02DC0612FCE0186960E94691085E2FE0113
S11310F0B696DE01119601900D928A95E1F710E003
S11311001AC0212F30E0E2E0F0E0EC0FFD1FE20F07
S1131110F31F80818C3070F4F9013C97EE0FFF1FB0
S1131120EE0FFF1FEE5BFE4D402F46954695608106
S11311300E94B91C1F5F8981181718F3C65BDF4F23
S1131140CDBFDEBFDF91CF911F910F9108950F9313
S11311501F93CF93DF93CDB7DEB7CA54D109CDBF68
S1131160DEBF082F682FCE0186960E94691085E2A3
S1131170FE01B696DE01119601900D928A95E1F773
S113118010E01CC0E2E0F0E0EC0FFD1FE10FF11DE8
S113119080818C3090F0202F30E0F901EE0FFF1F9A
S11311A0EE0FFF1FEE0FFF1FE21BF30BE657FE4D82
S11311B020E040E063810E94351B1F5F898118177E
S11311C008F3C65BDF4FCDBFDEBFDF91CF911F9128
S11311D00F910895893079F00E94D40E8F3F59F011
S11311E08C3030F040E060E08C500E94B91C0895CF
S11311F060E00E945F1B08950F931F93CF93DF93CA
S1131200CDB7DEB7CA54D109CDBFDEBF603409F40F
S1131210C4C070F4673009F468C018F46630B9F0DB
S113122026C16A3009F472C06B3009F4A5C01FC12D
S1131230633609F4EDC020F4623609F4DDC017C149
S1131240643609F4F5C0653609F400C110C1082FED
S113125010E0F801EE0FFF1FE253FC4D80819181F5
S11312608F372FE79207E9F4F801EE0FFF1FE65AD4
S1131270FE4D808191818F372FE7920709F4F7C0E3
S11312808D30910520F4F801E658FE4D8083F80175
S1131290EE0FFF1FE65AFE4D8FE79FE78083918391
S11312A0E6C0892BC1F4F801EE0FFF1FEE0FFF1FFC
S11312B0EE0FFF1FE01BF10BE657FE4D44831F9218
S11312C04F938FE390E29F938F930E944F190F9057
S11312D00F900F900F90F801EE0FFF1FE253FC4D9B
S11312E08FE79FE780839183C2C0282F30E0F90104
S11312F0EE0FFF1FEE0FFF1FEE0FFF1FE21BF30B9E
S1131300E657FE4D40830E943308B1C0413480F05B
S1131310282F30E0F901EE0FFF1FEE0FFF1FEE0F35
S1131320FF1FE21BF30BE657FE4D90E4938321C0AD
S1131330403481F4282F30E0F901EE0FFF1FEE0F47
S1131340FF1FEE0FFF1FE21BF30BE657FE4D90EC61
S113135093830FC0282F30E0F901EE0FFF1FEE0F2B
S1131360FF1FEE0FFF1FE21BF30BE657FE4D90E845
S113137093830E94A7087BC0282F30E0F901EE0F69
S1131380FF1FEE0FFF1FEE0FFF1FE21BF30BE657CD
S1131390FE4D40830E9433086AC091E0403408F453
S11313A090E0492F682FCE0186960E94D20F85E2E5
S11313B0FE01B696DE01119601900D928A95E1F731
S11313C00981011115C053C0E2E0F0E0EC0FFD1FEC
S11313D0E10FF11D80818C3030F040E060E08C50F2
S11313E00E94B91C03C060E00E945F1B1F5F01C024
S11313F010E0101748F33BC0E82FF0E0EE0FFF1F9A
S1131400E65AFE4D80819181842B808391832FC085
S1131410E82FF0E050E0542F4427EE0FFF1FE65A68
S1131420FE4D80819181482B592B408351831FC0ED
S1131430E82FF0E0EE0FFF1FE253FC4D8081918115
S1131440807F9927842B8083918311C0E82FF0E05B
S1131450EE0FFF1FE253FC4D808191818F7099271D
S113146050E0542F4427482B592B40835183C65BAB
S1131470DF4FCDBFDEBFDF91CF911F910F91089554
S1131480DF92EF92FF920F931F93CF93DF93CDB729
S1131490DEB7CB54D109CDBFDEBF182F683138F485
S11314A0462F61E0CE0101960E941B1D11C06436D7
S11314B040F448EE460F60E0CE0101960E941B1DE9
S11314C007C04CE9460F62E0CE0101960E941B1D45
S11314D0612FCE0187960E949610D12C97C02BE0E5
S11314E02D1508F492C0E8E2F0E0EC0FFD1FED0DBD
S11314F0F11DE08027E2E29EC0011124DC01A55029
S1131500BE4D26E2FE01319601900D922A95E1F737
S1131510FC01E650FE4D20E040E060818E2D0E94EB
S1131520351B49816A818E2D0E94081BF12C69C0EC
S11315300F2D000F000F000F0F0D0E5F10E0F801CC
S11315403696A1E0B0E0AC0FBD1FA00FB11F81E043
S113155090E08C0F9D1FE80FF91F2C9140816F2D97
S11315608E2D0E940A1AF801319681E090E08C0FCA
S11315709D1FE80FF91F208140E06F2D8E2D0E94E2
S1131580371AF801329681E090E08C0F9D1FE80F26
S1131590F91F40816F2D8E2D0E94641AD801139675
S11315A0F801349681E090E08C0F9D1FA80FB91FBD
S11315B0E80FF91F2C9140816F2D8E2D0E948D1AFA
S11315C0F801359681E090E08C0F9D1FE80FF91F1C
S11315D040816F2D8E2D0E94E119D8011796085F66
S11315E01F4F81E090E08C0F9D1FA80FB91FFC01D5
S11315F0E00FF11F2C9140816F2D8E2D0E94B319A5
S1131600F39493E09F1508F093CFD3948FA1D81649
S113161008F465CFC55BDF4FCDBFDEBFDF91CF914F
S11316201F910F91FF90EF90DF900895EF92FF923A
S11316300F931F93CF93DF93CDB7DEB7A597CDBF9D
S1131640DEBFE82EF12CF701EE0FFF1FEE0FFF1F98
S1131650EE0FFF1FEE19FF09E657FE4D65837683F3
S1131660682FCE0101960E94691010E048C0812FB6
S113167090E0E2E0F0E0EC0FFD1FE80FF91F0081BD
S11316800C30F0F4F701EE0FFF1FEE0FFF1FEE0F0B
S1131690FF1FEE19FF09E657FE4D2581368144816F
S11316A0E4E1F0E0EC0FFD1FE80FF91F608181E039
S11316B00E946A1CAB01682F802F0E94BC1A1EC0B6
S11316C0F701EE0FFF1FEE0FFF1FEE0FFF1FEE19C6
S11316D0FF09E657FE4D258136814481E4E1F0E0BF
S11316E0EC0FFD1FE80FF91F608180E00E946A1C67
S11316F0AB01682F84EF800F0E94781C1F5F8981E3
S1131700181708F4B4CFA596CDBFDEBFDF91CF91F3
S11317101F910F91FF90EF900895CF93DF93C82FFF
S1131720D62F8DED8C0F823060F46091EE234D2F17
S11317304695469581E00E94C71B61E080E00E94C7
S1131740B31BC63211F0C83261F46091EF234D2F00
S11317504695469582E00E94C71B62E080E00E94A5
S1131760B31BC13311F0C93361F46091F0234D2FE1
S11317704695469584E00E94C71B64E080E00E9481
S1131780B31BCA3221F0CC3211F0CE3261F4609135
S1131790F1234D2F4695469588E00E94C71B68E0CB
S11317A080E00E94B31BC93251F0CB3241F0CD32FC
S11317B031F0CF3221F0C03311F0C23361F46091C3
S11317C0F2234D2F4695469580E10E94C71B60E1A8
S11317D080E00E94B31BC53261F46091F3234D2F66
S11317E04695469580E20E94C71B60E280E00E9415
S11317F0B31BDF91CF910895CF92DF92EF92FF92C6
S11318000F931F93CF93DF93C82F062F893029F4AA
S1131810642F802F0E948D0B8DC00E941E0E182FE6
S11318208F3F09F487C08C3008F45BC08C2F90E0A4
S1131830EC01CC0FDD1FCC0FDD1FCC0FDD1FC81B4F
S1131840D90BC657DE4D89816881869FB00111246A
S1131850072E000C880B990B0E94441E20E030E0F8
S11318604EEF52E40E949A1D0E94131EF62EF69427
S1131870F694F6942D813E814C81602F80E00E9485
S11318806A1CC62FE72ED82E04EF010F40E060E05B
S1131890802F0E94B91C4C2F5E2D6D2D802F0E942D
S11318A0781CC12FD0E02C97FE01EE0FFF1FEE0F26
S11318B0FF1FEE5BFE4D4F2D6081802F0E94B91CEF
S11318C0DF92EF92DF93CF9389E490E29F938F931B
S11318D00E944F190F900F900F900F900F900F9040
S11318E029C08C2F90E0EC01CC0FDD1FCC0FDD1F45
S11318F0CC0FDD1FC81BD90BC657DE4D2D813E8191
S11319004C81602F81E00E946A1C6B01E82E60E02C
S1131910812F0E945F1B20E040E06B81812F0E9499
S1131920351B6E2DA601812F0E94BC1A6FEF812FEB
S11319300E945F1BDF91CF911F910F91FF90EF9059
S1131940DF90CF9008950F931F93CF93DF93CDB77C
S1131950DEB7A597CDBFDEBF082F162F1F926F935A
S11319601F928F9381E690E29F938F930E944F1969
S1131970602FCE0101960E9496100F900F900F9049
S11319800F900F900F9020E015C0822F90E0E2E0BE
S1131990F0E0EC0FFD1FE80FF91F30813C3048F0F8
S11319A0FC013C97EE0FFF1FEE0FFF1FEE5BFE4D99
S11319B011832F5F8981281740F3A596CDBFDEBF21
S11319C0DF91CF911F910F9108951F93CF93DF93D0
S11319D0182FEB01DF936F931F921F9380E890E21F
S11319E09F938F930E944F19BE0180E090E00E9464
S11319F0421E9B01AC0160E074E284EF95E40E9416
S1131A009A1D0E94131E562F0F900F900F900F9047
S1131A100F900F90112311F082E001C081E040E0AB
S1131A20672F0E94A11CDF91CF911F9108951F93EE
S1131A30CF93DF93EC01162F8EE990E29F938F935F
S1131A400E944F190F900F901330E8F188818D3761
S1131A50D1F589818130B9F58A818230E9F028F4A1
S1131A60882341F0813071F02EC08330D1F084306E
S1131A7019F129C0AE014B5F5F4F6C818B810E94CD
S1131A80C21021C06C818B81811102C081E001C030
S1131A9082E00E94B31C17C06C818B810E94A30C4E
S1131AA012C08C816D8190E8699FB0011124682B6C
S1131AB08B810E94E50C07C0BE016C5F7F4F4B8198
S1131AC081E00E94EF1CDF91CF911F910895FF9256
S1131AD00F931F93CF93DF93CDB7DEB76D97CDBF31
S1131AE0DEBF8C01F62E8EE789838FE78A8389E037
S1131AF08B8381E08C8387E0E0E0F0E2DE011596E1
S1131B0001900D928A95E1F789E0E7E0F0E2DE01C9
S1131B101C9601900D928A95E1F789E0E0E1F0E2EC
S1131B20DE01559601900D928A95E1F744E050E06C
S1131B30BE016F5F7F4FC8010E941420892B49F4B6
S1131B408FEA90E29F938F930E944F190F900F900A
S1131B503DC049E050E0BE01645F7F4FC8010E9470
S1131B601420892B49F489EB90E29F938F930E9470
S1131B704F190F900F902AC049E050E0BE016B5EF0
S1131B807F4FC8010E941420892B49F483EC90E212
S1131B909F938F930E944F190F900F9017C047E0A7
S1131BA050E0BE016B5F7F4FC8010E941420892B57
S1131BB049F48EEC90E29F938F930E944F190F90FB
S1131BC00F9004C06F2DC8010E94170D6D96CDBFF4
S1131BD0DEBFDF91CF911F910F91FF90089580E0B8
S1131BE016C0282F30E0F901EE0FFF1FEE0FFF1F84
S1131BF0EE0FFF1FE21BF30BEC5FFB4D1582168209
S1131C009FEF908394831282118213828F5F8231BB
S1131C1040F38CE010C0282F30E0F901EE0FFF1FD5
S1131C20EE0FFF1FEE0FFF1FE21BF30BEC5FFB4DEC
S1131C30158216828F5F823170F308951F93CF93BC
S1131C40DF93A82FB0E0FD01EC50FC4D108290E032
S1131C501EE17EE14FC0292F30E0F901EE0FFF1F96
S1131C60EE0FFF1FEE0FFF1FE21BF30BEC5FFB4DAC
S1131C700580F681E02D41E050E00A2E02C0440FB9
S1131C80551F0A94E2F74E235F23452BF1F0F90127
S1131C90EE0FFF1FEE0FFF1FEE0FFF1FE21BF30BF4
S1131CA0EC5FFB4D4281411110C0F901EE0FFF1FA3
S1131CB0EE0FFF1FEE0FFF1FE21BF30BEC5FFB4D5C
S1131CC04181741710F0192F742FF901EE0FFF1FC3
S1131CD0EE0FFF1FEE0FFF1FE21BF30BEC5FFB4D3C
S1131CE02081821306C0FD01EC50FC4D20812F5F42
S1131CF020839F5F923108F4AECF1E3109F44FC0A8
S1131D00212F30E0F901EE0FFF1FEE0FFF1FEE0F42
S1131D10FF1FE21BF30BEC5FFB4D8083648391E0B8
S1131D2092839D012C503C4DE90198819183AE57DB
S1131D30BB4D9C91938390E02EC0292F30E0F90194
S1131D40EE0FFF1FEE0FFF1FEE0FFF1FE21BF30B43
S1131D50EC5FFB4D408184131DC0F901EE0FFF1FA2
S1131D60EE0FFF1FEE0FFF1FE21BF30BEC5FFB4DAB
S1131D70418151E0411101C050E0F901EE0FFF1F14
S1131D80EE0FFF1FEE0FFF1FE21BF30BEC5FFB4D8B
S1131D90451B41839F5F903180F2812F01C08FEFFB
S1131DA0DF91CF911F910895CF93DF9390E07EE16F
S1131DB0A0E0B0E063C0292F30E0F901EE0FFF1F6F
S1131DC0EE0FFF1FEE0FFF1FE21BF30BEC5FFB4D4B
S1131DD00580F681E02D41E050E0082E02C0440F5A
S1131DE0551F0A94E2F74E235F23452B79F0F9013E
S1131DF0EE0FFF1FEE0FFF1FEE0FFF1FE21BF30B93
S1131E00EC5FFB4D4281411101C0BF5FF901EE0F50
S1131E10FF1FEE0FFF1FEE0FFF1FE21BF30BEC5F24
S1131E20FB4D4081841329C0F901EE0FFF1FEE0F13
S1131E30FF1FEE0FFF1FE21BF30BEC5FFB4D448112
S1131E4046131BC0F901EE0FFF1FEE0FFF1FEE0F2D
S1131E50FF1FE21BF30BEC5FFB4D4281442369F04F
S1131E60F901EE0FFF1FEE0FFF1FEE0FFF1FE21B26
S1131E70F30BEC5FFB4DA181792F9F5F923108F446
S1131E809ACF7E3109F488C0C72FD0E0FE01EE0F4F
S1131E90FF1FEE0FFF1FEE0FFF1FEC1BFD0BEC5F90
S1131EA0FB4D938191110EC0FE01EE0FFF1FEE0F4B
S1131EB0FF1FEE0FFF1FEC1BFD0BEC5FFB4D93E1CF
S1131EC090830CC0FE01EE0FFF1FEE0FFF1FEE0FFD
S1131ED0FF1FEC1BFD0BEC5FFB4D1182FE01EE0FAF
S1131EE0FF1FEE0FFF1FEE0FFF1FEC1BFD0BEC5F40
S1131EF0FB4D1282B18390E03DC0292F30E0F901FF
S1131F00EE0FFF1FEE0FFF1FEE0FFF1FE21BF30B81
S1131F10EC5FFB4D408184132CC0F901EE0FFF1FD1
S1131F20EE0FFF1FEE0FFF1FE21BF30BEC5FFB4DE9
S1131F3042814423F1F0E9F0F901EE0FFF1FEE0FA7
S1131F40FF1FEE0FFF1FE21BF30BEC5FFB4D5181F4
S1131F5041E05A1708F040E0F901EE0FFF1FEE0FC1
S1131F60FF1FEE0FFF1FE21BF30BEC5FFB4D450F52
S1131F7041839F5F923108F2FE01EE0FFF1FEE0FC7
S1131F80FF1FEE0FFF1FEC1BFD0BEC5FFB4D83816E
S1131F90882321F08FEF03C08FEF01C0872FDF91DB
S1131FA0CF9108954423C9F1E62FF0E0EE57FB4D9D
S1131FB021E0208320E02CC0422F50E0FA01EE0FF4
S1131FC0FF1FEE0FFF1FEE0FFF1FE41BF50BEC5F6F
S1131FD0FB4D308163131BC0FA01EE0FFF1FEE0FA0
S1131FE0FF1FEE0FFF1FE41BF50BEC5FFB4D32816F
S1131FF0332369F0FA01EE0FFF1FEE0FFF1FEE0F00
S1132000FF1FE41BF50BEC5FFB4D31E033832F5FC7
S1132010223190F2FC0110820895E62FF0E0EE5791
S1132020FB4D1082FC01108240E04FC0242F30E0B1
S1132030F901EE0FFF1FEE0FFF1FEE0FFF1FE21B54
S1132040F30BEC5FFB4D5281511124C0F901EE0FEB
S1132050FF1FEE0FFF1FEE0FFF1FE21BF30BEC5FE2
S1132060FB4D53815523B1F0F901EE0FFF1FEE0F25
S1132070FF1FEE0FFF1FE21BF30BEC5FFB4D5081C4
S1132080651308C0FC01508171E0750F7083E50F82
S1132090F11D4183F901EE0FFF1FEE0FFF1FEE0F3D
S11320A0FF1FE21BF30BEC5FFB4D5381552361F0E3
S11320B0F901EE0FFF1FEE0FFF1FEE0FFF1FE21BD4
S11320C0F30BEC5FFB4D13824F5F423108F4AECF4C
S11320D00895DC011C9290E025C0292F30E0F9011D
S11320E0EE0FFF1FEE0FFF1FEE0FFF1FE21BF30BA0
S11320F0EC5FFB4D4081461314C04C91F901EE0F87
S1132100FF1FEE0FFF1FEE0FFF1FE21BF30BEC5F31
S1132110FB4D8481FD01E40FF11D838B4F5F4C93D4
S113212091839F5F9231C8F2CD010895DC011C9226
S113213090E024C0292F30E0F901EE0FFF1FEE0FCD
S1132140FF1FEE0FFF1FE21BF30BEC5FFB4D4581FE
S1132150568121E030E0062E02C0220F331F0A947C
S1132160E2F724233523232B41F08C9121E0280F1F
S11321702C93FD01E80FF11D91839F5F9231D0F202
S1132180CD010895FF920F931F93CF93DF93F82E01
S1132190062FEA0110E065C0FE01E20FF11D808107
S11321A018131CC0212F30E081E090E00F2C02C0F6
S11321B0880F991F0A94E2F7F901EE0FFF1FEE0F43
S11321C0FF1FEE0FFF1FE21BF30BEC5FFB4D25819E
S11321D03681822B932B8583968323C0412F50E035
S11321E081E090E00F2C02C0880F991F0A94E2F757
S11321F080959095FA01EE0FFF1FEE0FFF1FEE0F73
S1132200FF1FE41BF50BEC5FFB4D458156818423D6
S11322109523858396832F5F01C020E0201708F45F
S1132220BBCF812F90E0FC01EE0FFF1FEE0FFF1FCD
S1132230EE0FFF1FE81BF90BEC5FFB4D86818F93BC
S113224085818F931F921F9386E590E29F938F93CE
S11322500E944F191F5F0F900F900F900F900F90D7
S11322600F901231D0F2DF91CF911F910F91FF9017
S113227008950F931F93CF93DF93CDB7DEB7C15467
S1132280D109CDBFDEBF60913321162F107F062FF9
S11322900F70103929F480919424811101C010E841
S11322A0103869F47091932480E0E0913C21F0911E
S11322B03D21309709F469C0602F099566C0103933
S11322C061F4E2E9F4E271818281E0913E21F091CE
S11322D03F21309711F0602F0995103B71F4E2E92A
S11322E0F4E271818281E0913A21F0913B213097AF
S11322F009F44BC0602F099548C0103C59F49091E3
S11323009324E0913821F09139213097F1F1802F15
S113231009953BC0103E99F4E2E9F4E2828120E899
S1132320829FC00111242181822BE0913621F091FA
S11323303721309721F0602F782F892F0995103F8E
S113234021F540913021498350E065E974E2CE01E2
S113235002960E942120809134219091352100978A
S1132360A1F0EDB7FEB7E154F109EDBFFEBFADB783
S1132370BEB7119621E4FE01319601900D922A9583
S1132380E1F7FC010995CDBFDEBFCF5BDF4FCDBFC9
S1132390DEBFDF91CF911F910F910895909132216B
S11323A0992339F010923221809394240E94391198
S11323B0089590913321992371F1903C30F491E088
S11323C090933221809393240895903E28F480932F
S11323D093240E9439110895903F30F491E0909332
S11323E03221809393240895923F41F41092332133
S11323F091E090933221809393240895933F11F0B8
S1132400913F39F410923321809393240E9439111F
S11324100895109233210895883F90F480933321D6
S113242010923221803F61F481E080933121109237
S1132430302180E4E5E9F4E2DF011D928A95E9F7B1
S1132440089590913121992391F0873F29F41092B6
S113245031210E9439110895E091302191E09E0FBD
S113246090933021F0E0EB56FB4D80830895882350
S11324701CF40E940C1208950E94CE1108959091AC
S1132480A10995FFFCCF8093A00908952FB7F89474
S113249081E003C09091DC2680E08111FBCF2FBF47
S11324A09923A1F3AAEDB6E2ED91FC9111978191E4
S11324B0ED93FC93E85DF64231F429ED35E2209387
S11324C0DA263093DB262FB7F89491E006C0ECEDC2
S11324D0F6E290819150908390E09111F8CF2FBF54
S11324E090E008951F920F920FB60F9211242F932C
S11324F08F939F93AF93BF93EF93FF938091A00823
S1132500E4EDF5E2A081B1818C9380819181019603
S1132510808391838E179F0731F485ED94E2809335
S1132520D4259093D5259FB7F89481E006C0E8EDB3
S1132530F5E280818F5F808380E08111F8CF9FBFB7
S1132540FF91EF91BF91AF919F918F912F910F9038
S11325500FBE0F901F9018951F920F920FB60F92F7
S113256011242F938F939F93AF93BF93EF93FF9374
S11325708091A009E8EDF6E2A081B1818C9380817D
S113258091810196808391838E179F0731F489EDA1
S113259095E28093D8269093D9269FB7F89481E04A
S11325A006C0ECEDF6E280818F5F808380E08111CC
S11325B0F8CF9FBFFF91EF91BF91AF919F918F9102
S11325C02F910F900FBE0F901F901895F894E0E68E
S11325D0F6E088E081838583E0EAF9E08CE0868395
S11325E080E2878383E0858388E1848380E3838337
S11325F02FB7F89481E00DC089ED95E28093D82639
S11326009093D9268093DA269093DB261092DC26C9
S113261080E08111F1CF2FBF8FE392E18093DF2619
S11326209093E02686E492E18093DD269093DE2663
S113263078940895F894E0E4F6E088E08183858353
S1132640E0EAF8E08FE0868380E2878383E0858395
S113265088E1848380E383832FB7F89481E00DC0FD
S113266085ED94E28093D4259093D5258093D62547
S11326709093D7251092D82580E08111F1CF2FBFF8
S1132680789408952FB7F89481E003C09091D825E9
S113269080E08111FBCF2FBF992309F1A6EDB5E2AC
S11326A0ED91FC9111979191ED93FC93E45DF542CA
S11326B031F425ED34E22093D6253093D7252FB776
S11326C0F89481E006C0E8EDF5E2808181508083D2
S11326D080E08111F8CF2FBF892F90E008958FEF0C
S11326E09FEF0895CF92DF92EF92FF92CF93DF9303
S11326F06B017C01C0E0D0E021C020E030E543EC78
S113270057E4C701B6010E94F41E882364F020E058
S113271030E543EC57E4C701B6010E949A1D6B01F2
S11327207C0125960BC020E030E040E251E4C70173
S1132730B6010E949A1D6B017C01219620E030E0D5
S113274040E251E4C701B6010E94F41E8823ACF6AE
S113275021C02CEA35EC47E257E3C701B6010E94D9
S1132760951D882364F420E030E543EC57E4C70169
S1132770B6010E94F91E6B017C0125970BC020E075
S113278030E040E251E4C701B6010E94F91E6B013A
S11327907C01219720E030E040E85FE3C701B60107
S11327A00E94951D8823ACF2CE01DF91CF91FF905A
S11327B0EF90DF90CF900895CF93DF93EC0160E02A
S11327C070E080E89FE312C0C530D10544F020E0FA
S11327D030E543EC57E40E94F91E259707C020E03A
S11327E030E040E251E40E94F91E21971C161D06B8
S11327F05CF313C0CC3F2FEFD20744F420E030E564
S113280043EC57E40E949A1D259607C020E030E06F
S113281040E251E40E949A1D2196DD235CF3DF918E
S1132820CF9108952F923F924F925F926F927F9231
S11328308F929F92AF92BF92CF92DF92EF92FF92CC
S11328400F931F93CF93DF93CDB7DEB72897CDBFF8
S1132850DEBF7C014A015B016901302E9A01AB01A4
S1132860C501B4010E94661F81113FC1DD202CF413
S11328700F2EF6E0CF2ED12CF02D20E030E0A90170
S1132880C501B4010E94951D88234CF4B7FAB09495
S1132890B7F8B0940F2EFDE22F2EF02D04C00F2EAA
S11328A0FBE22F2EF02D24013501E89477F82FEF69
S11328B03FEF4FE75FE7C301B2010E94661F81113A
S11328C00BC02FEF3FEF4FE75FE7C301B2010E9458
S11328D0951D18160CF46FC026E6321227C08827FF
S11328E099278C199D090E94DC1320E030E040E018
S11328F05FE30E94F91E9B01AC01C501B4010E9473
S1132900291D4B015C010E9472138C01992314F45C
S113291000E010E0C601800F911F039680970CF031
S113292053C01F8218861D821E8269C020E030E0D9
S1132930A901C501B4010E94951D882309F44BC067
S1132940C501B4010E9472138C199D090E94DC1305
S113295020E030E040E05FE30E94F91E9B01AC01FF
S1132960C501B4010E94291D4B015C010E94721330
S11329708D839E8384369105ACF5C60106968097B7
S1132980C4F58D819E818D399F4F24F4EDE9FFEFCD
S1132990ED83FE838D819E810E94DC139B01AC013B
S11329A0C501B4010E949A1D4B015C011F82188667
S11329B000E010E024C028ED30E22F83388700E0E7
S11329C010E01D821E821BC08CED90E28F839887DD
S11329D01D821E8214C01F82188600E010E01D8232
S11329E01E820DC0ACEDB0E2AF83B88700E010E00A
S11329F006C0ECEDF0E2EF83F88700E010E02F81F1
S1132A003885232B09F078C03DE2231207C0D70193
S1132A102C92F70131967F0101C07C01C8010E940C
S1132A20DC1369837A838B839C839B01AC01C5018E
S1132A30B4010E949A1D0E940C1E2B013C01072E1A
S1132A40000C880B990B0E94441E29813A814B810A
S1132A505C810E94F91E9B01AC01C501B4010E9476
S1132A60281D4B015C010F3FFFEF1F0731F48EE27D
S1132A70D7018C93F70131967F01C701019620E3BA
S1132A80240DD7012C9301501109222733272C1927
S1132A903D09021713070CF6B6E63B1661F1F70180
S1132AA031822D813E8133235CF4319521953109A6
S1132AB02D833E8333968DE2D70112968C9306C004
S1132AC0F70133968BE2D70112968C938D819E8108
S1132AD06AE070E00E947F1F605D60837F01B2E066
S1132AE0EB0EF11C805D818307C0EFEDF0E2EF8314
S1132AF0F887212C01C07C012F813885232BD1F04C
S1132B00222029F0D7012C92F70131967F01F70199
S1132B103196AF81B8858C91D7018C93AF81B885FC
S1132B2011968C9111977F011196AF83B88781110B
S1132B30EECF01C0F70110822896CDBFDEBFDF9132
S1132B40CF911F910F91FF90EF90DF90CF90BF90A6
S1132B50AF909F908F907F906F905F904F903F9039
S1132B602F9008950F931F93CF93DF938C01EB0164
S1132B706A30710521F46DE070E00E94B215011510
S1132B80110521F0CE01F80109950DC0E091402115
S1132B90F0914121309739F0CF0101968093402183
S1132BA090934121C083DF91CF911F910F9108959C
S1132BB02F923F924F925F926F927F928F929F9249
S1132BC0AF92BF92CF92DF92EF92FF920F931F9337
S1132BD0CF93DF93CDB7DEB7C254D109CDBFDEBFEB
S1132BE08EAF9FAF6FA778AB49AF5AAF0FA518A9A7
S1132BF00F5F1F4FEFA5F8A96081662309F438C35E
S1132C00653241F070E08EAD9FAD0E94B2150FA702
S1132C1018ABECCF8FA598A90296EFA5F8A951801F
S1132C20F0E35F120DC0EFA5F8A952803396EFA729
S1132C30F8ABF0E32196FFAF21971CAE1DAE1AC08E
S1132C400DE250120FC0EFA5F8A952803396EFA7FA
S1132C50F8ABF0E22196FFAF219702E010E00CAF51
S1132C601DAF08C08FA798AB10E221961FAF219724
S1132C701CAE1DAE2AE252122EC029AD3AAD2E5F13
S1132C803F4FE9ADFAAD8081918199233CF4919550
S1132C908195910902E010E00CAF1DAF1C01EFA576
S1132CA0F8A9508029AF3AAF3196EFA7F8AB1FC00F
S1132CB09101220F331F220C331C220C331C220CD3
S1132CC0331C220E331E280E311C00E3201A310857
S1132CD08081319605C0212C312C852DEFA5F8A9D2
S1132CE090ED980F9A3020F3582EEFA7F8AB1EE220
S1132CF051123CC08FA598A90196EFA5F8A9508060
S1132D00FAE25F1224C0E9ADFAADE080F180EFA5EC
S1132D10F8A9518009AD1AAD0E5F1F4F09AF1AAF64
S1132D203296EFA7F8AB25C09701220F331FEE0CA4
S1132D30FF1CEE0CFF1CEE0CFF1CE20EF31EE80E53
S1132D40F11C10E3E11AF1088081319607C08FA7C6
S1132D5098ABE12CF12C852DEFA5F8A990ED980FF7
S1132D609A3010F3582EEFA7F8AB03C0EE24EA9480
S1132D70FE2C2CE652121CC02CAD3DAD24608FA558
S1132D8098A90196EFA5F8A95080FCE65F120CC043
S1132D900CAD1DAD0C600CAF1DAFEFA5F8A95180B3
S1132DA03296EFA7F8AB04C02CAF3DAF8FA798AB1A
S1132DB0552009F45DC2852D90E0FC01E554F1092C
S1132DC0E433F10508F0E9C0EA54FF4F0C94931F73
S1132DD00F2EFAE06F2E712CF02DEFC0689466244C
S1132DE064F8712CEAC009AD1AAD0E5F1F4FE9AD4E
S1132DF0FAAD6081718177278EAD9FAD0E94B215C7
S1132E0009AF1AAFF3CE49AC5AACF2E04F0E511CE5
S1132E10E9ADFAAD808091808114910431F40F2ED4
S1132E20FDEC8F2EF0E29F2EF02DF4010190002096
S1132E30E9F731978F0108191909FF20A4F0E0166A
S1132E40F106C8F487016CAC7DAC2196BFAC219728
S1132E50CEACDFAC17C06B2D70E0C6010E94B2157A
S1132E600F5F1F4F0FC06CAC7DAC2196BFAC219798
S1132E70CEACDFAC07C06CAC7DAC2196BFAC219767
S1132E80CEACDFAC61FC0FC00215130520F36EACB1
S1132E907FAC0AC0FFEF8F1A9F0A70E0C3010E9443
S1132EA0B215760101C03601F4016081662379F020
S1132EB06701F1E0CF1AD108EF2861F7430108C098
S1132EC060E270E0C4010E94B215870101C04301B1
S1132ED078012FEFE21AF20A0215130588F38EAE79
S1132EE09FAE49AE5AAE82CE89AC9AAC34E0830E22
S1132EF0911CE9ADFAAD4081518162817381052D48
S1132F009701CE0101967C010E941214F7010190F1
S1132F100020E9F731978F010E191F096CAC7DACC5
S1132F2021965FAC2197EEACFFAC07C0652D70E035
S1132F30C7010E94B2150F5F1F4F61FC11C002153B
S1132F401305A0F3FE0131967F016EAC7FAC0EC079
S1132F50FFEFEF1AFF0A70E0C3010E94B21506C02A
S1132F609E012F5F3F4F79016EAC7FACF70160810A
S1132F706111EECF6EAC7FAC06C060E270E0C301BD
S1132F800E94B21587017801FFEFEF1AFF0A0215BC
S1132F90130598F389AE9AAE29CE652D70E08EADF7
S1132FA09FAD0E94B21522CE6894662461F8712CFC
S1132FB004C06894662463F8712C0CAD03FF27C029
S1132FC0E9ADFAADF081F9ABE9ADFAADF181FAAB57
S1132FD0E9ADFAADF281FBABE9ADFAADF381FCAB3F
S1132FE0E9ADFAADF481FDABE9ADFAADF581FEAB27
S1132FF0E9ADFAADF681FFABE9ADFAADF781F8AF13
S113300009AD1AAD085F1F4F09AF1AAF60C01CAD00
S113301012FF30C024E6521216C0E9ADFAAD808129
S11330209181A281B38189AB9AABABABBCABBB0F33
S1133030880B982FDC018DAB8EAB8FAB88AF3496A9
S1133040E9AFFAAF44C0E9ADFAAD80819181A281C4
S1133050B3818C019D0140E050E0BA0189AB1AAB09
S11330602BAB3CAB4DAB5EAB6FAB78AF3496E9AFFB
S1133070FAAF2DC014E6511215C0E9ADFAAD818145
S1133080F081F9AB8AAB880F880B8BAB8CAB8DAB23
S11330908EAB8FAB88AF09AD1AAD0E5F1F4F09AF72
S11330A01AAF15C0E9ADFAAD808191818C0120E0A1
S11330B030E040E050E0BA0189AB1AAB2BAB3CAB3B
S11330C04DAB5EAB6FAB78AF3296E9AFFAAF14E6B7
S11330D051121BC029A93AA94BA95CA96DA97EA9C3
S11330E08FA998ADA0E00E9408207CF40E94F81FEC
S11330F029AB3AAB4BAB5CAB6DAB7EAB8FAB98AF54
S11331002CAD3DAD21602CAF3DAF09A91AA919A77B
S11331102BA92AA73CA93BA74DA94CA75EA95DA74B
S11331206FA96EA748AC812C912C23962EAE3FAE8E
S113313023975BAE302E01C04801830120E030E0CC
S113314040E050E0BA0169A21AA32BA33CA34DA30B
S11331505EA36FA378A7A62CB12EC12CD12CE12C91
S1133160F12C00E010E0232D39A54AA55BA56CA540
S11331707DA58EA5942D0E94991F522E222E232DBB
S113318039A54AA55BA56CA57DA58EA5942D0E94A5
S11331909B1F322E39A74AA75BA76CA77DA78EA7D2
S11331A0492E19E0151540F4EBADE83711F4E7E2C8
S11331B001C0E7E0252C2E0E84010F5F1F4FA1E014
S11331C0B0E0AC0FBD1FA80DB91DE0E3E20DEC9318
S11331D0A0E00E94082021F00032110508F4ACCFD1
S11331E023962EAC3FAC2397FCADF0FF0BC0E1E07F
S11331F0F0E0EC0FFD1FE00FF11F8DE280838401EE
S11332000E5F1F4F78016CAC7DAC21965FAC2197AB
S11332108EAC9FAC08C0652D70E0C4010E94B2154D
S11332202FEFE21AF20A61FC03C0E214F30498F3EC
S113323001501109E1E0F0E0EC0FFD1FE00FF11F78
S1133240608170E0C4010E94B2150115110581F777
S11332508EAE9FAE06C060E270E0C4010E94B2155B
S1133260780187010F5F1F4FE214F304A0F3BECC73
S1133270CE5BDF4FCDBFDEBFDF91CF911F910F91AA
S1133280FF90EF90DF90CF90BF90AF909F908F9082
S11332907F906F905F904F903F902F900895CF93C1
S11332A0DF93CDB7DEB7AE014B5F5F4FFA0161919B
S11332B07191AF018091DF269091E0260E94D8158C
S11332C0DF91CF910895CF93DF93C0E0D6E08FEFE5
S11332D08983A0E2B6E08FE011968C931197E0E821
S11332E0F6E087E081831C8293E016969C93169700
S11332F09CE015969C93858384E08683A3EDB0E3DC
S11333001197F1F700C000008583DF91CF910895F4
S11333108370880F880FE0E2F6E0868393E096835B
S11333206370658340930406A0E8B6E091E01696C6
S11333309C93169726E02A95F1F700C015969C9366
S1133340858386E08A95F1F700C0089522E040E283
S113335061E083E00E948E1B20E849E261E083E0A3
S11333600E948E1B0895942FE82FF0E0EE0FFF1FAC
S1133370EE0FFF1FE60FF11DE050FF4D4081405D51
S1133380977030E1939FB00111242F70262B9BEA94
S1133390899F912D112496959695392F330F930F6C
S11333A0392F330F982F931B933010F461E001C031
S11333B062E0863010F481E001C082E00E948E1B3E
S11333C00895E82FF0E0EE0FFF1FEE0FFF1FE60F4A
S11333D0F11DE050FF4D3081305C242F2F779BEAA4
S11333E0899F912D112496959695492F440F940FFA
S11333F0492F440F982F941B933010F461E001C0BF
S113340062E0863010F481E001C082E0432F0E9424
S11334108E1B0895942FE82FF0E0EE0FFF1FEE0FA0
S1133420FF1FE60FF11DE050FF4D4081405B30E48B
S1133430939FB00111242F71262B9BEA899F912D14
S1133440112496959695392F330F930F392F330FF7
S1133450982F931B933010F461E001C062E0863032
S113346010F481E001C082E00E948E1B0895942F25
S1133470E82FF0E0EE0FFF1FEE0FFF1FE60FF11D28
S1133480E050FF4D4081405A30E8939FB001112431
S11334902F71262B9BEA899F912D11249695969541
S11334A0392F330F930F392F330F982F931B9330EA
S11334B010F461E001C062E0863010F481E001C0E4
S11334C082E00E948E1B0895E82FF0E0EE0FFF1FAC
S11334D0EE0FFF1FE60FF11DE050FF4D3081305914
S11334E0242F2F719BEA899F912D112496959695EF
S11334F0492F440F940F492F440F982F941B933056
S113350010F461E001C062E0863010F481E001C093
S113351082E0432F0E948E1B0895342FE82FF0E0A1
S1133520EE0FFF1FEE0FFF1FE60FF11DE050FF4DE2
S1133530908140E8490F2F70332311F090E101C0CE
S113354090E0292B9BEA899F912D112496959695BD
S1133550392F330F930F392F330F982F931B933039
S113356010F461E001C062E0863010F481E001C033
S113357082E00E948E1B0895FF920F931F93CF93B6
S1133580DF93F82E052F162F1770477080E0942FC5
S1133590990F990F990F082B192BCBEAFC9EC12D7B
S11335A01124DC2FD6954D2F440FD40F8F2D8D1B56
S11335B0D82F44EA480FC695C6958C2F880FC80F9C
S11335C08C2F880FCF2DC81BC33010F461E001C0CD
S11335D062E085E08F1510F081E001C082E0212FC8
S11335E00E948E1B40EA4D0FC33010F461E001C00D
S11335F062E085E08F1510F081E001C082E0202FA9
S11336000E948E1BDF91CF911F910F91FF9008951F
S1133610677070E0660F771F660F771F660F771F5E
S1133620242F2770262B9BEA899F912D1124392F53
S11336303695432F440F340F482F431B405596951E
S11336409695392F330F930F392F330F982F931BE0
S1133650933010F461E001C062E0863010F481E040
S113366001C082E00E948E1B0895437090E1499F3F
S1133670A0011124462B2770242B9BEA899F912DAE
S11336801124392F3695432F440F340F482F431BF1
S11336904C5496959695392F330F930F392F330F3A
S11336A0982F931B933010F461E001C062E08630E0
S11336B010F481E001C082E00E948E1B089530E185
S11336C0639FB00111249BEA899F912D1124969543
S11336D09695292F220F920F292F220F982F921B94
S11336E0933010F024E001C020E09BEA899F912DE3
S11336F011249695392F330F930F382F391B932F9D
S11337009370622B292F262B863010F481E001C0A0
S113371082E048E261E00E948E1B0895CF93DF931C
S1133720C82FD22F623018F0623071F019C060E0F7
S11337300E94881900C04D2F61E08C2F0E948819C7
S113374088E08A95F1F70CC062E00E94881900C0F5
S11337504D2F63E08C2F0E94881988E08A95F1F739
S1133760DF91CF91089520E8829FC0011124262F74
S1133770282B40E161E081E00E948E1B0895282FF0
S11337802F7341E161E081E00E948E1B0895242F94
S11337902F71262B843081F028F48130A9F08230F7
S11337A049F006C0803161F0803261F0883031F038
S11337B040E00BC049E109C04AE107C04BE105C044
S11337C04CE103C04DE101C048E161E081E00E94A9
S11337D08E1B88E08A95F1F70895440F452F441F06
S11337E0550B519555274054510990E003960024F8
S11337F0969587950794969587950794982F802D8D
S1133800649FF001659FF00D1124E80FF91FCF01AB
S113381060E073E00E946B1F462F772780E09DEFE6
S1133820689F9001699F300D789F300D1124E20F3D
S1133830F31FEE0FFF1FEC52FE4F8591949147301A
S113384050F06650710902C0969587956A95E2F723
S1133850782F892F0BC026E030E0261B370B02C0DF
S1133860880F991F2A95E2F7782F892F60E0089531
S1133870440F452F441F550B51955527405451096A
S113388090E00396002496958795079496958795DE
S11338900794982F802D649FF001659FF00D1124EB
S11338A0E80FF91FCF0160E073E00E946B1F80E016
S11338B09DEF689F9001699F300D1124E20FF31F63
S11338C06250EE0FFF1FEC52F84F85919491782FC0
S11338D0892F0895962F642F813029F4A901892F07
S11338E00E94381C0895A901892F0E94ED1B089598
S11338F0CF93DF93252FD62F833088F08350C82FA2
S1133900CC0F4C2F60E082E00E948E1B2D2F2F7075
S113391041E04C0F60E082E00E948E1B0FC0C82F74
S1133920CC0F4C2F60E081E00E948E1B2D2F2F7056
S113393041E04C0F60E081E00E948E1BDF91CF914B
S11339400895CF93DF93C82F252FD62F4BE060E047
S11339500E948E1B2D2F4CE060E08C2F0E948E1B4A
S1133960DF91CF910895262F47E060E00E948E1BDF
S11339700895833060F0662311F020E101C0242F04
S113398045E0480F60E082E00E948E1B08956623A4
S113399011F020E101C0242F48E0480F60E081E0ED
S11339A00E948E1B0895FC0186E2689FD0011124B9
S11339B0AF51B94D96E201900D929A95E1F70895B1
S11339C09C019091CF019923E4F386E2689FB001B2
S11339D0112446E250E0C9010E942A2008959B0167
S11339E0813019F0823031F00895642FC9010E94AA
S11339F0D31C0895642FC9010E94E01C0895DC01C2
S1133A0086E2689FF0011124EF51F94D96E201908E
S1133A100D929A95E1F708959C019091CF01992315
S1133A20E4F386E2689FB001112446E250E0C90144
S1133A300E9480200895613019F0623029F00895C1
S1133A40642F0E94FF1C0895642F0E940C1D08958A
S1133A505058BB27AA270E94401D0C94BA1E0E94EE
S1133A60AC1E38F00E94B31E20F039F49F3F19F4C5
S1133A7026F40C94A91E0EF4E095E7FB0C94A31E07
S1133A80E92F0E94CB1E58F3BA1762077307840705
S1133A90950720F079F4A6F50C94ED1E0EF4E0954C
S1133AA00B2EBA2FA02D0B01B90190010C01CA01F4
S1133AB0A0011124FF27591B99F0593F50F4503E9F
S1133AC068F11A16F040A22F232F342F4427585F91
S1133AD0F3CF469537952795A795F0405395C9F7A9
S1133AE07EF41F16BA0B620B730B840BBAF0915061
S1133AF0A1F0FF0FBB1F661F771F881FC2F70EC000
S1133B00BA0F621F731F841F48F4879577956795D2
S1133B10B795F7959E3F08F0B0CF9395880F08F0BE
S1133B209927EE0F9795879508950E947F1E08F4B4
S1133B3081E008950E94AE1D0C94BA1E0E94B31E2B
S1133B4058F00E94AC1E40F029F45F3F29F00C9419
S1133B50A31E51110C94EE1E0C94A91E0E94CB1EA0
S1133B6068F39923B1F3552391F3951B550BBB27A8
S1133B70AA2762177307840738F09F5F5F4F220FED
S1133B80331F441FAA1FA9F335D00E2E3AF0E0E8E4
S1133B9032D091505040E695001CCAF72BD0FE2F2E
S1133BA029D0660F771F881FBB1F261737074807C2
S1133BB0AB07B0E809F0BB0B802DBF01FF2793587A
S1133BC05F4F3AF09E3F510578F00C94A31E0C947D
S1133BD0EE1E5F3FE4F3983ED4F3869577956795A0
S1133BE0B795F7959F5FC9F7880F911D96958795AF
S1133BF097F90895E1E0660F771F881FBB1F6217CE
S1133C0073078407BA0720F0621B730B840BBA0B8B
S1133C10EE1F88F7E09508950E94131E6894B11171
S1133C200C94EE1E08950E94D31E88F09F5798F0BE
S1133C30B92F9927B751B0F0E1F0660F771F881FAD
S1133C40991F1AF0BA95C9F714C0B13091F00E94C7
S1133C50ED1EB1E008950C94ED1E672F782F882790
S1133C60B85F39F0B93FCCF3869577956795B395EE
S1133C70D9F73EF490958095709561957F4F8F4F5D
S1133C809F4F0895E89409C097FB3EF49095809562
S1133C90709561957F4F8F4F9F4F9923A9F0F92F0E
S1133CA096E9BB279395F695879577956795B7958C
S1133CB0F111F8CFFAF4BB0F11F460FF1BC06F5F72
S1133CC07F4F8F4F9F4F16C0882311F096E911C084
S1133CD0772321F09EE8872F762F05C0662371F0A5
S1133CE096E8862F70E060E02AF09A95660F771FB9
S1133CF0881FDAF7880F9695879597F90895990F95
S1133D000008550FAA0BE0E8FEEF16161706E807A1
S1133D10F907C0F012161306E407F50798F0621BC2
S1133D20730B840B950B39F40A2661F0232B242B97
S1133D30252B21F408950A2609F4A140A6958FEFB6
S1133D40811D811D089597F99F6780E870E060E008
S1133D5008959FEF80EC089500240A941616170620
S1133D6018060906089500240A9412161306140668
S1133D7005060895092E0394000C11F4882352F0CB
S1133D80BB0F40F4BF2B11F460FF04C06F5F7F4F83
S1133D908F4F9F4F089557FD9058440F551F59F06A
S1133DA05F3F71F04795880F97FB991F61F09F3F24
S1133DB079F087950895121613061406551FF2CF4D
S1133DC04695F1DF08C0161617061806991FF1CF9D
S1133DD086957105610508940895E894BB276627C4
S1133DE07727CB0197F908950E947F1E08F48FEF7F
S1133DF008950E940C1F0C94BA1E0E94AC1E38F049
S1133E000E94B31E20F0952311F00C94A31E0C9471
S1133E10A91E11240C94EE1E0E94CB1E70F3959FD4
S1133E20C1F3950F50E0551F629FF001729FBB27AD
S1133E30F00DB11D639FAA27F00DB11DAA1F649F49
S1133E406627B00DA11D661F829F2227B00DA11DFC
S1133E50621F739FB00DA11D621F839FA00D611D82
S1133E60221F749F3327A00D611D231F849F600DA3
S1133E70211D822F762F6A2F11249F5750409AF0CC
S1133E80F1F088234AF0EE0FFF1FBB1F661F771F58
S1133E90881F91505040A9F79E3F510580F00C9423
S1133EA0A31E0C94EE1E5F3FE4F3983ED4F3869574
S1133EB077956795B795F795E7959F5FC1F7FE2BC3
S1133EC0880F911D9695879597F908950E947F1EF6
S1133ED0880B990B0895AA1BBB1B51E107C0AA1FAD
S1133EE0BB1FA617B70710F0A61BB70B881F991F97
S1133EF05A95A9F780959095BC01CD01089597FB3B
S1133F00072E16F4009407D077FD09D00E946B1F8A
S1133F1007FC05D03EF4909581959F4F08957095C8
S1133F2061957F4F0895EE0FFF1F0590F491E02DEA
S1133F300994689401C0E8948F929F92CF93DF9381
S1133F400E94A71FDF91CF919F908F90089588249E
S1133F509924F401E401B0E49F93AA279A158B04F1
S1133F609C04ED05FE05CF05D007A10798F4AD2FFD
S1133F70DC2FCF2FFE2FE92D982C892E982F872FF9
S1133F80762F652F542F432F322F2227B85031F725
S1133F90BF9127C01B2EBF91BB27220F331F441F85
S1133FA0551F661F771F881F991F881C991CEE1FB9
S1133FB0FF1FCC1FDD1FAA1FBB1F8A149B04EC0527
S1133FC0FD05CE05DF05A007B10748F08A189B0858
S1133FD0EC09FD09CE09DF09A00BB10B21601A948D
S1133FE0E1F62EF49401AF01BE01CD01000C089559
S1133FF06095709580959095309540955095219554
S11340003F4F4F4F5F4F6F4F7F4F8F4F9F4F0895DD
S11340100024A7FD00942A173005400550056005CB
S11340207005800590050895FB01DC0104C08D91A5
S11340300190801921F441505040C8F7881B990B16
S11340400895FB01DC0102C001900D9241505040E3
S1134050D8F70895A0E0B0E0E0E3F0E20C949620F5
S11340602091CC0128602093CC01C0E20FEF13E033
S1134070D5E3FF24F39441155105C1F1262F2F7187
S11340803C2F321B232F30E04217530708F49A01C8
S1134090D22EF801E21BF30BE617F70710F40E9487
S11340A0BD20E091CF01E7FDFCCFC82EDB01B05F5E
S11340B0FC01E090CF01E7FCFCCFE190ED92EE2E05
S11340C0EC18ED14B0F31092C2017093C101609327
S11340D0C001D093CA01E8EDE4BFF092CB01820F96
S11340E0931F620F731F421B530BC5CF8091CC01EA
S11340F0877F8093CC01CDB7DEB7E8E00C94AF2086
S1134100E0ECF1E0A785A7FDFDCFA485A860A48716
S11341106050704F0C9421202F923F924F925F92E7
S11341206F927F928F929F92AF92BF92CF92DF92C3
S1134130EF92FF920F931F93CF93DF93CDB7DEB728
S1134140CA1BDB0BCDBFDEBF09942A883988488897
S11341505F846E847D848C849B84AA84B984C8849F
S1134160DF80EE80FD800C811B81AA81B981CE0F96
S1134170D11DCDBFDEBFED01089581E090E0F8943C
S10B41800C94C220F894FFCF57
S113418843104C00007E004110421240007F004161
S11341984110421200007F000102071C04000501BF
S11341A82502010316090102012F020C001D040354
S11341B80601250103071208000606000201005043
S11341C8425320253032780A004E4F5445204F4E32
S11341D82025303278202530327820253034780A6A
S11341E800456E76656C6F70652053686170652054
S11341F84348253032782C56414C253032780A0011
S1134208456E76656C6F7065204652455120494469
S1134218253032782C56414C253032780A004F74B8
S1134228686572204578636C75736976650A00471A
S11342384D2052657365740A0047532052657365AF
S1134248740A004753204D6F646520310A005847AB
S11342582052657365740A00494E46004F56004E55
S1134268614E002530386C58200020253032580023
S1134278202000202530345800202530386C580080
S11342880008040C0109050D020A060E0008040CB6
S11342980109050D020A060E0008040C0109050DA2
S11342A8020A060E0008040C0109050D020A060E8E
S9030000FC
